:020000040000FA
:10000000000C0020F1040000FD0E0000050F0000B0
:10001000050F0000050F0000050F0000050F000090
:10002000050F0000050F0000050F0000050F000080
:10003000050F0000050F0000050F0000050F000070
:10004000050F0000050F0000050F0000050F000060
:10005000050F0000050F0000050F0000050F000050
:10006000050F0000050F0000050F0000050F000040
:100070008F090000050F00008D0E0000050F000025
:10008000050F0000050F0000050F0000050F000020
:10009000050F0000050F000015170000050F0000F8
:1000A000050F0000050F0000050F0000050F000000
:1000B000050F0000050F0000050F0000050F0000F0
:020000040000FA
:10040000FFFFFFFFFFFFFFFFFFFFFFFF7EFFFFFF7D
:020000040000FA
:1004100000F002F800F04DF80CA030C8083824189D
:100420002D18A246671EAB4654465D46AC4201D12C
:1004300000F03FF87E460F3E0FCCB6460126334211
:1004400000D0FB1AA246AB4633431847EC700000BD
:100450000C710000103A02D378C878C1FAD852075C
:1004600001D330C830C101D504680C60704700006A
:100470000023002400250026103A01D378C1FBD8C0
:10048000520700D330C100D50B60704710B5642906
:1004900002D105F06BFD10BD752902D105F066FD96
:1004A00010BD002010BD1FB5C046C0461FBD10B511
:1004B00010BD04488546FFF7F6FF01F099F906F0F4
:1004C0000FFD0000000C002003B4FFF7F0FF03BC99
:1004D00006F03CFD03B4EFF3108172B6017003BC6B
:1004E0007047000003B4017881F3108803BC7047A3
:1004F0000148804701480047070F00001104000031
:1005000070B505460C46164602E00FCC0FC5103EEE
:10051000102EFAD2082E02D303CC03C5083E042EB7
:1005200007D301CC01C5361F03E021782970641C74
:100530006D1C761EF9D270BD0146724841600022E2
:100540000270714AD26B0123DB061A436E4BDA63E9
:100550006E4A12686E4B1A406C4B1A601A4652680B
:100560006B4B1A40694B5A601A469268684B1A40A6
:10057000664B9A601A46D268654B1A40634BDA6044
:100580005C22644B9A601A46D2681D239A43022368
:100590001A43604BDA6000221A6245225A625E4AB0
:1005A0001060704701465B48006A802210400028B6
:1005B00001D0082070475748406A08229043554AA6
:1005C00050621046006A40229043524A10624878B6
:1005D00010600020EEE730B503461C46012A01D822
:1005E000002A01D1962030BD4A48006A8025284063
:1005F000002801D00820F6E722700878042801D3EB
:100600008220F0E70878454D285C60700020EAE71A
:1006100030B502460B461C46002107E03D4810302D
:100620008D0040594D006053481CC1B2107888427B
:10063000F4DC002030BD02463648006880231840B4
:100640000146002903D0334800690120704700208B
:10065000FCE701462F48006A80221040002801D0A4
:10066000082070472B48006A40229043294A1062B4
:100670001F2010601046406A80221043254A5062B5
:100680000020EEE702462348406A40231840002835
:1006900001D01B2070471F484030C1688068411856
:1006A0001C484030406841181A48403000684118E2
:1006B0001848C06B41181748806B4118480801233F
:1006C000DB03184301461348C16212484030C16A37
:1006D000806A41180F484030406A41180D48403048
:1006E000006A41180B484030C06941180948403041
:1006F00080694118480818430146064801630020F4
:10070000C8E7000000FCFF1F0080044000A0044078
:10071000FFF8FFFE00B00340E0FCFF1F0C7200007A
:1007200010B50146F74800224280028142604281B2
:100730000282C2604161F44A1060F44A526B0123A4
:100740009B021A43F14B5A63F14A5268F14B1A402B
:1007500001235B021A43EE4B5A601A469268ED4B36
:100760001A4001235B021A43E94B9A60EA4A0323C9
:100770001B02D218D268D209D20180231A43E64B59
:10078000032424021B19DA60E34A126801231B03C5
:100790001A43E14B1A60E14AD278F7231A40DF4B43
:1007A000DA701A46D278FB231A40DC4BDA7000224A
:1007B00002809A709A719A725A71D44A5268A3044C
:1007C0009A4301239B06D218D04B5A60D34A127821
:1007D000E0231A40921CD14B1A708B225A701A4691
:1007E000927AE0231A40D21CCC4B9A721A46D27AE3
:1007F000FD231A40921CC94BDA721A46D278F723AD
:100800001A400832C54BDA701A46D278FB231A40D8
:10081000121DC24BDA701A46D27820231A43BF4BFE
:10082000DA701A4692799A71BD4A506010BDF8B5D7
:1008300006460F4615463446002D01D18420F8BDEA
:100840002089002801D00820F9E700BF6846FFF79B
:1008500041FEB4480078401CC0B2B249087001287B
:1008600003D168460078B049087000BF67602581F1
:100870000020608000BFAB480078401EC0B2A9498C
:100880000870002802D1A848FFF72CFE00BF002006
:10089000D5E7F8B506460F4615463446002D01D17A
:1008A0008420F8BD208A002801D00820F9E700BF85
:1008B0006846FFF70FFE9B480078401CC0B299497C
:1008C0000870012803D1684600789749087000BF76
:1008D000E760258200206081208801210843208074
:1008E0008E48C078802108438C49C87008468079BA
:1008F000887100BF8B480078401EC0B289490870DB
:10090000002802D18848FFF7EDFD00BF0020C8E7AE
:1009100070B504468148C579208900280FD06268E7
:10092000501C606015706088401C60806088218960
:10093000884204D100202081606900F0FEFB70BD78
:1009400010B504466089218A884212DAE168481CA1
:10095000E06008787149C8716089401C60816089D5
:10096000218A884212D100202082606900F0E6FBD3
:100970000CE06A48C0784006400E6849C8700846D6
:1009800080798871208869490840208010BD70B541
:100990005D480568614804792007000F002807D0EA
:1009A0000F205E4908710846C07960481F3804402E
:1009B0002020204000287DD05D4800780A280ADAEF
:1009C0005648C1795A4802780078401C584B187034
:1009D0005848815401E001F0BBFC554800780128DB
:1009E00011D154480078022803D1002052490870E0
:1009F00002E00120504908703220504908700A2056
:100A00004F4908700AE14C480078012862D14848F3
:100A10000078042812D14748807800024549C978F7
:100A200040180A28EED1434840780628EAD10C2025
:100A3000424908700A2042490870EFE03C480078BB
:100A400007281ED13B484078032803D03948407816
:100A5000062803D1082039490870DFE0354840787E
:100A600010280AD133488079093034490870314858
:100A70008079083032490870D0E032202F49087060
:100A8000CCE02B4800782D49097888420BD12948C1
:100A90004078032811D02748407806280DD02548F3
:100AA0004078102809D0224800780628AAD1214889
:100AB000407800E0B5E01928A4D10620214908704B
:100AC00000201F49087006201F49087001201F4997
:100AD0000870A3E01848007800287AD114480078FC
:100AE000012806D0022833D0032839D0042807D1A2
:100AF00079E010480078022802D000200C490870E4
:100B00007CE00000B0FCFF1F10FCFF1F00800440D1
:100B100000900440FFFAFFFE00E100E000A0064064
:100B2000E0FCFF1F1DFCFF1F1CFCFF1FFEFF000061
:100B30005DFCFF1FECFDFF1F14FCFF1F15FCFF1FDA
:100B40005EFCFF1F17FCFF1F16FCFF1F5FFCFF1F53
:100B50003A484078002802D00020394908704DE01A
:100B600036488078B32823D010DCA32826D006DCB2
:100B7000802820D0902823D0A1282BD123E0A4289E
:100B80001BD0B0281BD0B12824D11EE0BA2818D021
:100B900006DCB5280DD0B6280CD0B7281AD10BE04A
:100BA000BF280FD0E02802D0E12813D10CE000BF0D
:100BB00000BF00BF00BF00BF00BF00BF00BF00BF3D
:100BC00000BF00BF00BF00BF00BF04201D49087068
:100BD00007E023E000201A49087004201949087032
:100BE00000BF00BF0AE01548C0780D2805D00020DE
:100BF0001349087004201349087000BF00BF104853
:100C0000007810490978884208D101200E490870FF
:100C100004200C4908700020094908702846FFF795
:100C200077FE2878C007C00F002806D0802020401B
:100C3000002802D02846FFF783FE70BDECFDFF1FA1
:100C40005DFCFF1F15FCFF1F5FFCFF1F10B5014679
:100C50009F48002242800281426042810282C2603B
:100C600041619C4A10609C4A526B01231B031A434A
:100C7000994B5A63994A1269994B1A4003231B02F4
:100C80001A43964B1A611A465269954B1A40032330
:100C90001B021A43914B5A61924A03231B02D2183A
:100CA000D2687F231B049A430123DB051A438D4B33
:100CB000032424021B19DA608A4A126801239B0369
:100CC0001A43884B1A60884AD278F7231A40864B19
:100CD000DA701A46D278FB231A40834BDA7000226E
:100CE00002809A709A715A711A461278E0231A405B
:100CF0007D4B1A700B225A701A46D278F7231A408D
:100D00000832794BDA701A46D278FB231A40121D4A
:100D1000754BDA701A46D27820231A43724BDA7078
:100D20001A4692799A71714A906010BDF8B50646DC
:100D30000F4615463446002D01D18420F8BD208988
:100D4000002801D00820F9E700BF6846FFF7C2FB82
:100D500067480078401CC0B265490870012803D17B
:100D6000684600786349087000BF676025810020ED
:100D7000608000BF5E480078401EC0B25C490870C9
:100D8000002802D15B48FFF7ADFB00BF0020D5E78C
:100D9000F8B506460F4615463446002D01D184208D
:100DA000F8BD208A002801D00820F9E700BF684676
:100DB000FFF790FB4E480078401CC0B24C490870C9
:100DC000012803D1684600784A49087000BFE760EF
:100DD000258200206081208801210843208042482C
:100DE000C078802108434049C870084680798871DE
:100DF00000BF3F480078401EC0B23D49087000283F
:100E000002D13C48FFF76EFB00BF0020C8E770B579
:100E100004463548C579208900280FD06268501CE7
:100E2000606015706088401C6080608821898842FD
:100E300004D100202081606900F07DF970BD10B5FB
:100E400004466089218A884212DAE168481CE06021
:100E500008782549C8716089401C60816089218AB1
:100E6000884212D100202082606900F065F90CE010
:100E70001D48C0784006400E1B49C870084680795E
:100E8000887120881C490840208010BD70B5114829
:100E90000568154804792007000F002804D012487F
:100EA000C07915481F38044020202040002802D077
:100EB0002846FFF7ACFF2878C007C00F002806D0EF
:100EC00080202040002802D02846FFF7B8FF70BDE0
:100ED000C8FCFF1F18FCFF1F0080044000C0044036
:100EE000FFFBFFFE00E100E000C00640E0FCFF1F4A
:100EF0001DFCFF1F1CFCFF1FFEFF000010B500F0D3
:100F000017F910BD70477748774988600020774906
:100F10000860032000047549C03948607448806B3C
:100F20001F2149020843724988637248807808216A
:100F30000840002804D06F48807808436D498870C5
:100F4000012080076A4940314860694840680121B2
:100F5000090408436649486067480068032189041A
:100F60000843654908606248406801214906884392
:100F7000491008435E4948606048806860490840FD
:100F80005E4988600846C0685D4908405B49C860A2
:100F900024205C49487080205B4908709A20594998
:100FA00008700846C078C006C00EC87001200871DD
:100FB000487100BF53488079102108400028F9D1BA
:100FC00000BF504880790C2108400828F9D1412001
:100FD0004C49487100BF4B4880790C2108400828D3
:100FE000F9D100BF47488079402108400028F9D056
:100FF0001A204449087000BF424880790C210840FB
:101000000C28F9D1704710B53C48403800690121DF
:101010000906884307210902084338494039086115
:101020003A484079E021084038494871084600793B
:10103000F8210840354908712E480078DC21084025
:10104000502108432B49087008464078DC210840AD
:10105000402108432749487008468078E621084027
:101060002449887000202A49087024480069012119
:1010700009068843072109020843204908612548D9
:101080000321090240184068FF21090488432149CF
:1010900003221202891848600020FFF74DFA1E490A
:1010A0000860002003F09CF91C4908600020FFF74D
:1010B00037FB1B4908600020FFF7C8FD194908608D
:1010C000002000F03DF818490860002003F0B0FB54
:1010D00016490860002000F05DFB00BF62B600BF4B
:1010E00010BD00000000000000ED00E000810440A1
:1010F0000080044000D0074000700440409004404D
:10110000FFF8FFFE004006400050064000F0074098
:1011100000E0074000E100E00CFCFF1F40FCFF1F67
:1011200038FCFF1F3CFCFF1F44FCFF1F48FCFF1F57
:1011300070477047704770477047704770470000AE
:101140000146F7480160F74A1268F74B1A43F54B1E
:101150001A601A465269F44B1A43F24B5A61F34A29
:101160001268F34B1A40FF2301331A43EF4B1A6006
:101170001A465268EE4B1A40FF2301331A43EB4BD9
:101180005A601A469268EA4B1A40FF2301331A4309
:10119000E64B9A601A46D268E54B1A40FF230133AA
:1011A0001A43E24BDA601A461269E14B1A40FF23F8
:1011B00001331A43DD4B1A611A465269DC4B1A405F
:1011C000FF2301331A43D94B5A61D84A403212687F
:1011D000D74B1A40FF2301331A43D44B40331A60D4
:1011E000D24AD269D24B1A40FF2301331A43CF4B64
:1011F000DA61D04AD060704730B504460B0005F084
:10120000ACFE08050F1A25303B46535ECA480068FD
:1012100040084000D307DB0F1843C74B18604FE06E
:10122000C548006802239843530002252B40184309
:10123000C14B186044E0C048006804239843930001
:1012400004252B401843BC4B186039E0BA480068AD
:1012500008239843D30008252B401843B64B186049
:101260002EE0B548006810239843130110252B4049
:101270001843B14B186023E0AF480068202398431F
:10128000530120252B401843AB4B186018E0AA48A7
:10129000006801231B049843130401252D042B40EF
:1012A0001843A54B18600BE0A348006880239843BF
:1012B000D30180252B4018439F4B186000E000BFEE
:1012C00000BF30BD00B502460B0005F046FE080524
:1012D0000A10161C22282F3597480069C007C00F36
:1012E00000BD95480069022318404008F8E792487D
:1012F0000069042318408008F2E78F48006908233A
:101300001840C008ECE78C48006910231840000919
:10131000E6E789480069202318404009E0E786484D
:10132000006901231B041840000CD9E782480069BA
:1013300080231840C009D3E700BF00BF0020CFE7DB
:1013400010B50B0005F009FE08050A10161C22282E
:101350002F35D307DB0F784CA3602BE0530002241A
:101360002340754CA36025E0930004242340724C75
:10137000A3601FE0D300082423406F4CA36019E052
:101380001301102423406C4CA36013E0530120246C
:101390002340694CA3600DE013040124240423407E
:1013A000654CA36006E0D30180242340624CA36017
:1013B00000E000BF00BF10BD10B50B0005F0CDFD73
:1013C00008050A10161C22282F35D307DB0F5A4CAC
:1013D00063602BE0530002242340574C636025E0F8
:1013E000930004242340544C63601FE0D30008247E
:1013F0002340514C636019E01301102423404E4CEC
:10140000636013E05301202423404B4C63600DE0E4
:101410001304012424042340474C636006E0D301F5
:1014200080242340444C636000E000BF00BF10BD37
:1014300010B50B0005F091FD08050A10161C2228B6
:101440002F35D307DB0F3C4CE3602BE05300022425
:101450002340394CE36025E0930004242340364CBC
:10146000E3601FE0D30008242340334CE36019E01D
:10147000130110242340304CE36013E05301202477
:1014800023402D4CE3600DE0130401242404234089
:10149000294CE36006E0D30180242340264CE3601E
:1014A00000E000BF00BF10BD00B50B0005F055FD0A
:1014B00008050C131A21282F464D1F4A526952085D
:1014C00052001D4B5A6141E01B4A526902239A4364
:1014D000194B5A613AE0184A526904239A43164B51
:1014E0005A6133E0144A526908239A43124B5A61F5
:1014F0002CE0114A526910239A430F4B5A6125E0A0
:101500000D4A526920239A430B4B5A611EE00A4A46
:10151000526901231B049A43074B5A6116E00000ED
:1015200020FCFF1F80F00F40BF00010000B004400E
:10153000FFF9FFFEE0FCFF1F80F00FF84F4A5269F1
:1015400080239A434D4B5A6100E000BF00BF00BDAD
:1015500030B504460B0005F000FD08051526374898
:10156000596A7D8E4548006840084000D307DB0F6C
:101570001843424B186018464069012318433F4BFB
:10158000586179E03D4800680223984353000225E2
:101590002B401843394B1860184640690223184302
:1015A000364B586168E0354800680423984393003F
:1015B00004252B401843314B18601846406904231A
:1015C00018432E4B586157E02C4800680823984375
:1015D000D30008252B401843284B18601846406953
:1015E00008231843254B586146E02448006810231F
:1015F0009843130110252B401843204B18601846C0
:101600004069102318431D4B586135E01B480068A2
:1016100020239843530120252B401843174B186073
:101620001846406920231843144B586124E013489E
:10163000006801231B049843130401252D042B404B
:1016400018430E4B1860184640692B4618430B4B45
:10165000586111E00948006880239843D301802530
:101660002B401843054B18601846406980231843E7
:10167000024B586100E000BF00BF30BD80F00FF8A2
:1016800010B50446FFF756FD10BD000010B5014629
:10169000334A5269002A04D1324841600122027063
:1016A00006E02F4A506941600278521C027010BD5A
:1016B0002D4A10602D4AD26B0123DB051A432B4BB8
:1016C000DA6300222A4B1A6000232A4A936001231E
:1016D000D360294A274B1A60284A03231B02D218D9
:1016E00052697F231B049A430123DB051A43234BD2
:1016F000032424021B195A61204A126801239B0506
:101700001A431E4B1A6003231A4A9360144A50610D
:1017100000BFCCE710B514480468012018490870D0
:1017200018480088002804DD16480088401E154926
:10173000088015480088401C134908801348007829
:10174000012804D112480088401C11490880012159
:101750000848C1600068606800F030F810BD000003
:10176000E0FCFF1F24FCFF1F2CFCFF1F0080044037
:1017700000700340007103401F4E000000E100E0D4
:101780004EFCFF1F4CFCFF1F74FCFF1F76FCFF1F6D
:1017900078FCFF1F70B505460C4CA5600120207138
:1017A0000B4884610020FFF771FF2060206800284B
:1017B00002D10749886170BD2046FCE770B5054637
:1017C00003488469A068FFF75BFF70BDFCFCFF1F46
:1017D000E0FCFF1F2F49088000BF2E49098800291F
:1017E000FBD1704700B52C4A1420FFF7F3FF00BD72
:1017F000FFF709FC0122002128480068FFF7A0FD3F
:1018000000F0B6FDFFF7EEFF00F0A2F900F054F88B
:1018100003F0F2F903F0AEFD04F047FB00BF2048EF
:101820000078012833D100201D4908701D48007838
:1018300000280ADD1B480078401E1A490870084637
:101840000078002801D1184908701848007800284D
:1018500004DD16480078401E1449087014480078CA
:10186000012807D111480078002803D110490870D9
:1018700002F09AFA0F480078401C0E49087008469A
:1018800000780A2803DB0020087000F0C7F803F096
:101890007FFDC4E74CFCFF1F3412000044FCFF1F17
:1018A0004EFCFF1F5EFCFF1F5DFCFF1F16FCFF1FB1
:1018B0005FFCFF1F4FFCFF1F002007E04100664A4E
:1018C000515A4200654B9952411CC8B20628F5DBBB
:1018D0000021634A1170704741005F4A515A42002B
:1018E0005E4B995270475F490978062902D1002161
:1018F0005C4A11705B490A780978491C594B197088
:101900005949885456490978491C554A11707047FD
:1019100010B553480078002800D110BD5348007816
:10192000062802D10020514908704F484F490978D4
:10193000405C030005F011FB0604070A2C44475ED7
:1019400003F0F3FB57E002F063FC54E00122484946
:1019500048480068FEF73FFE46480068FEF722FE52
:1019600000BF44480068FEF766FE0128F9D14249ED
:1019700040480068FEF74CFE3F493239488EC11797
:10198000890E091889113D4A118003F037FF32E0B2
:1019900001223B4937480068FEF71DFE35480068C4
:1019A000FEF700FE00BF33480068FEF744FE012842
:1019B000F9D1314912392F480068FEF729FE1AE0A3
:1019C00000F06DFB17E02C488E304089002810D1C4
:1019D00029490E314B8D4039488B0A4680326C3193
:1019E00003F0AAFD84B2204603F02BFE22493239CF
:1019F000C88200E000BF00BF1B491C4A1278885C07
:101A0000FFF76AFF19480078401C1849087014480D
:101A10000078401E1249087000BF7EE710B5002410
:101A200014E060000D49085A00280DDD6000085AD6
:101A3000401E6100094A505260001146085A0028B1
:101A400002D12046FFF74FFF601CC4B2062CE8DB32
:101A5000FFF75EFF10BD00001072000008FDFF1FC1
:101A600050FCFF1F57FCFF1F51FCFF1F58FCFF1FBE
:101A70000AFCFF1F0CFCFF1F46FDFF1F9EFCFF1F03
:101A800009FCFF1FFFB581B005460E4617463A46D2
:101A900031462846049B02F0D1FC00BF284602F0E4
:101AA0004DFD284602F079FE0446022C01D10120AA
:101AB00000E00020002C01D1012100E000210843BA
:101AC0000028EBD005B0F0BDFFB581B005460E464D
:101AD00017463A4631462846049B02F0D7FC00BF21
:101AE000284602F02BFD284602F057FE0446022C41
:101AF00001D1012000E00020002C01D1012100E0F3
:101B0000002108430028EBD005B0F0BDF8B505462C
:101B10000E460027012292023146284602F0DCFCE4
:101B2000074600BF284602F009FD284602F035FEB0
:101B30000446022C01D1012000E00020002C01D13C
:101B4000012100E0002108430028EBD03846F8BD11
:101B500038B5002496E06300FE481A18A000FE4B3A
:101B6000C1180223FD480068FFF7AEFF6300F94883
:101B700014301A18A000F84B9B1CC1180223F74818
:101B80000068FFF7A1FF6300F2482A301A18A0008E
:101B9000F14B2A33C1180223F0480068FFF794FF85
:101BA0006300EC483E301A18A000EB4B2C33C118F0
:101BB0000223EA480068FFF787FF6300E5482C38F6
:101BC0001A18A000E44B5833C1180223E3480068F8
:101BD000FFF77AFF6300DF4818381A18A000DE4BC1
:101BE0005A33C1180223DD480068FFF76DFF61001A
:101BF000D848405ADA49884210D16100D54814309B
:101C0000405AD749884209D100216200D148815207
:101C10006200143081520120D24908706100CD4821
:101C20002A30405ACE49884211D16100C9483E301D
:101C3000405ACB4988420AD100216200C5482A3067
:101C400081526200143081520120C649087061003F
:101C5000C0482C38405AC249884211D16100BD4861
:101C60001838405ABE4988420AD100216200B9485A
:101C7000183881526200143881520120B949087025
:101C8000601CC4B20A2C00DA65E70223B14A921E36
:101C9000B1492831B1480068FFF716FFAD482C382C
:101CA000408D0A2806DD0021AA482C3841850120F4
:101CB000AC4908700223A74A2832A7495231A748E5
:101CC0000068FFF701FFA3481430808A0A2806DD68
:101CD0000021A048143081820120A249087002230B
:101CE0009C4A2E3A9C4980319C480068FFF7ECFEE4
:101CF00098484C38807F0A2806DD002195484C38EA
:101D000081770120974908700223924A5232924902
:101D1000543192480068FFF7D7FE8E481430C08FC8
:101D20008F49884207D1FF21F5318A481430C18795
:101D300001208C4908700223864A343A8649823150
:101D400086480068FFF7C0FE82486C38008F8449DF
:101D5000884207D1FF20F5307E496C390887012081
:101D60008049087002237B4A383A7B4984317B489A
:101D70000068FFF7A9FE77486C38808E7849884262
:101D800007D1FF20F53073496C39888601207549E9
:101D9000087002236F4A5A3A6F4986316F480068CB
:101DA000FFF792FE6B486C38408A6D49884207D134
:101DB000FF20F53067496C39488201206949087075
:101DC0000223644A303A6449883164480068FFF766
:101DD0007BFE60486C38808F6149884207D1FF20C4
:101DE000F5305C496C39888701205E490870022310
:101DF000584A5C3258498A3158480068FFF764FEF7
:101E00005448543000895649884207D1FF21F531A2
:101E100050485430018101205249087002234D4A34
:101E2000483A4D498C314D480068FFF74DFE49480E
:101E30006C38808C4A49884206D1002045496C396B
:101E400088840120474908700223424A423A4249A5
:101E50008E3142480068FFF737FE3E486C38408DAF
:101E60003F49884206D100203A496C394885012013
:101E70003C4908700223374A463A3749903137487F
:101E80000068FFF721FE33486C38C08C3449884223
:101E900006D100202F496C39C884012031490870CF
:101EA00002232C4A403A2C4992312C480068FFF713
:101EB0000BFE28486C38808D2949884206D10021C4
:101EC00024486C3881850120264908700223214A64
:101ED000443A2149943121480068FFF7F5FD1D4837
:101EE0006C38008D1E49884206D1002119486C3893
:101EF000018501201B4908700223164A121F16494A
:101F0000963116480068FFF7DFFD12482C38008D27
:101F10001349884206D100210E482C380185012042
:101F20001049087002230B4A3E3A0B4998310B487E
:101F30000068FFF7C9FD07486C38C08D0849884222
:101F400006D1142003496C39C88501200549087061
:101F5000022309E080FDFF1F107C000040FCFF1FF2
:101F6000FFFF00005BFCFF1FEF4AF049F0480068EC
:101F7000FFF7AAFDEC480A384089EE49884206D1AD
:101F80000021E9480A3841810120EB490870022309
:101F9000E54A921CE549891CE5480068FFF794FD75
:101FA000E1480A388089E349884207D1FF2191310D
:101FB000DD480A3881810120DF4908700223DA4AAE
:101FC000121DDA49091DDA480068FFF77DFDD64881
:101FD0000A38C089D749884206D10121D2480A3837
:101FE000C1810120D44908700223CF4A921DCF49F4
:101FF000891DCF480068FFF767FDCB480A38008A83
:10200000CC49884206D10E21C7480A3801820120F6
:10201000C94908700223C44A0832C4490831C44877
:102020000068FFF751FDC0480A38408AC14988421C
:1020300006D10121BC480A3841820120BE490870FE
:102040000223B94A0A32B9490A31B9480068FFF790
:102050003BFDB5480A38808AB649884206D100213E
:10206000B1480A3881820120B349087002236A46C8
:10207000AE490C31AE480068FFF726FD684600887F
:10208000AC49884204D1002000900120AA49087080
:102090006846008801B2A4480A38C18238BD70B5CC
:1020A00086B0A548007801287ED101221F2189022F
:1020B0009F480068FFF72AFD0546002D11D02A46EB
:1020C0009EA101A803F016FF01A804F021F886B232
:1020D000324601A99D480068FEF75AFE0520FFF729
:1020E00079FB00244FE0A000904B9A3BC21863009C
:1020F0008D485E38191802238D480068FFF7C2FC2E
:10210000A0008A4B983BC218630087484A381918C8
:10211000022387480068FFF7B5FCA000834B703BA3
:10212000C2186300804834381918022380480068B8
:10213000FFF7A8FCA0007D4B6E3BC21863007A48F5
:102140002038191802237A480068FFF79BFCA0008A
:10215000764B423BC218630073488A381918022331
:1021600073480068FFF78EFCA000704B403BC2181C
:1021700063006D487638191802236D480068FFF730
:1021800081FC601CC4B20A2CADDB0223674A1A3AF8
:1021900065498C3966480068FFF774FC0223634A7E
:1021A000723A6149603900E0BCE061480068FFF7BD
:1021B00069FC02235D4A483A5B4936395C4800684D
:1021C000FFF760FC0223594A463A57490C395848F0
:1021D0000068FFF757FC0223544A183A52499239D3
:1021E00053480068FFF74EFC0223504A163A4E4906
:1021F00096394F480068FFF745FC02234B4A143AD2
:102200004949B8394A480068FFF73CFC0223474A6D
:10221000123A45498E3946480068FFF733FC0223DD
:10222000424A103A4049891E41480068FFF72AFC9B
:1022300002233E4A0E3A3C49A6393D480068FFF762
:1022400021FC0223394A0C3A3749A0393848006842
:10225000FFF718FC0223354A0A3A3349A4393448B7
:102260000068FFF70FFC0223304A083A2E499E39D6
:102270002F480068FFF706FC02232C4A921F2A49C8
:10228000A2392B480068FFF7FDFB0223274A121FE3
:102290002549623926480068FFF7F4FB0223234AE8
:1022A000214923480068FFF7EDFB02231F4A921CD7
:1022B0001D49891C1E480068FFF7E4FB02231B4AE6
:1022C000121D1949091D1A480068FFF7DBFB02239C
:1022D000164A921D1449891D15480068FFF7D2FB64
:1022E0000223124A08321049083111480068FFF7EA
:1022F000C9FB02230D4A0A320B490A310C48006817
:10230000FFF7C0FB08480A38C08A80B20090022359
:10231000064A0C32694606480068FFF7B3FB002006
:102320000549087006B070BDDEFDFF1FAA7C0000E5
:1023300040FCFF1FFFFF00005BFCFF1F7374617414
:102340007573203D25750A0D000000003CFCFF1F41
:102350000020F9490870F94908707047704710B5B6
:1023600004462246F649F7480068FEF792FA10BD87
:102370000A20F5490870FE20F4498871704770B54D
:10238000F34C6478062C75D1062804D1F04C64799E
:10239000EE4DAC7131E207280AD1ED4C6479EB4D7A
:1023A0002C732C46A47B08252C43E84DAC7324E207
:1023B0006A280BD1E64C24792402E54D6D79641925
:1023C000E24DEC850124E34D2C7016E26B2812D10E
:1023D000DF4C24792402DE4D6D796419A1B2DB4C07
:1023E000658F0C46FF34F534641BD84DAC8701244F
:1023F000D84D2C7001E26C2812D1D54C24792402DE
:10240000D34D6D796419A1B2D04CE58E0C46FF34E2
:10241000F534641BCD4D2C870124CE4D2C70ECE19E
:102420006E2812D1CA4C24792402C94D6D796419E1
:10243000A1B2C64C258A0C46FF34F534641BC34D4B
:102440006C820124C34D2C70D7E16F2813D1C04C8E
:1024500024792402BE4D6D796419A1B2BB4C258E3E
:102460000C46FF34F534641BB84DAC860124B94DDD
:102470002C70C2E1C0E1722815D1B54C2479240238
:10248000B34D6D796419A1B2B04CC03465880C4667
:10249000FF34F534641BA5B2AC4CC0342581012453
:1024A000AC4D2C70A9E1732814D1A94C24792402D5
:1024B000A74D6D796419A5B2A44CC03465816489B7
:1024C000012C03DD0125A14CC03465810124A14DFF
:1024D0002C7092E178280DD19D4C247924029C4DDA
:1024E0006D796419A5B2994C403465850124994DE4
:1024F0002C7082E179282ADB8C2828DC0446793C80
:10250000E50F2D19ED052A0EE50F2D196D106D0043
:10251000651BEBB2002B0BD18D4C247924028C4D22
:102520006D796419A5B25600884C8034A5530AE031
:10253000874C24792402864D6D796419A5B2560022
:10254000824C6C34A5530124824D2C7055E18D28AA
:102550000DD17F4C247924027D4D6D796419A5B28B
:102560007A4CC034A58101247A4D2C7045E18E2827
:102570000DD1774C24792402754D6D796419A5B27B
:10258000724CC034E5810124724D2C7035E18F28E6
:102590000DD16F4C247924026D4D6D796419A5B26B
:1025A0006A4CC034258201246A4D2C7025E19028A4
:1025B0000DD1674C24792402654D6D796419A5B25B
:1025C000624CC03465820124624D2C7015E1912863
:1025D0000DD15F4C247924025D4D6D796419A5B24B
:1025E0005A4CC034A58201245A4D2C7005E1922822
:1025F0000DD1574C24792402554D6D79641925B2BB
:10260000524CC034E5820124524D2C70F5E09F28D5
:102610000BD14F4C247924024D4D6D7964194B4DEB
:10262000AC8401244B4D2C70E7E0A0280BD1484C22
:1026300024792402464D6D796419444D6C8501243A
:10264000444D2C70D9E0A1280BD1414C24792402AF
:102650003F4D6D7964193D4DEC8401243D4D2C7046
:10266000CBE0A2280CD13A4C24792402384D6D7964
:102670006419A5B2354CA5850124364D2C70BCE0FB
:10268000A3280CD1324C24792402314D6D79641980
:10269000A5B22E4C258501242E4D2C70ADE0A4282A
:1026A0000DD12B4C24792402294D6D796419A5B2E2
:1026B000264C8034E5870124264D2C709DE0A5280A
:1026C0000BD1234C24792402214D6D7964191F4DBF
:1026D0006C8201241F4D2C708FE0AB280DD11C4C57
:1026E000247924021A4D6D796419E5B2174C20340F
:1026F000A5770124174D2C707FE0AC283ADBBF286A
:1027000038DC0446AC3CE50F2D19ED052A0EE50F2B
:102710002D196D106D00651BEBB2002B1CD10C4CFC
:10272000247924020A4D6D796419A5B25600074C2C
:102730004034A5531AE000005DFCFF1F5FFCFF1F43
:102740001EFEFF1F38FCFF1F5EFCFF1F14FDFF1F56
:10275000ECFDFF1F5BFCFF1FFE4C24792402FD4DA6
:102760006D796419A5B25600FB4CA5530124FB4DAD
:102770002C7042E0CB280DD1F64C24792402F54D83
:102780006D796419A5B2F44C143C25850124F34DF0
:102790002C7032E0FF242E34A0422EDBFF24413483
:1027A000A0422ADC0446FF3C2E3CE50F2D19ED0526
:1027B0002A0EE50F2D196D106D00651BEBB2002B75
:1027C0000BD1E44C24792402E24D6D796419A5B251
:1027D0005600E14C5634A5530AE0DE4C247924021D
:1027E000DC4D6D796419A5B25600DB4C4234A5531B
:1027F0000124DA4D2C7000E000BF70BDF1B586B049
:102800000024D4484078062817D1002004900BE01B
:10281000D0490498085C2146621C94B2D04A5054B6
:102820000498401CC1B20491CE49097804988842AA
:10283000EEDBE0B2FFF793FDF5E3C64840781028E1
:1028400028D10020049010E0C2490498085C224678
:10285000611C8CB2C2498854BE4A0499505C01F094
:10286000B5FF0498401CC0B2049004980628EBDB26
:10287000BD4801782046621C94B2B94A1154BB4845
:1028800000782146621C94B2B54A5054E0B2FFF77A
:1028900066FDD1E7AF484078032801D000F05DFF26
:1028A000AC4840790590AB4800782146621C94B250
:1028B000AB4A5054A74840782146621C94B2A84ABB
:1028C0005054A44840794006000E2146621C94B240
:1028D000A34A50549F49087801F078FF9D494878F1
:1028E00001F074FF9B4949794906080E01F06EFF1B
:1028F00000200490FDE306990498081885B2032D82
:1029000015DC00266800944954390F5C2046611C90
:102910008CB293490E542046611C8CB290490F54DE
:10292000304601F053FF384601F050FFCAE3042D52
:1029300011D100262046611C8CB289490E542046D4
:10294000611C8CB286490F54304601F03FFF384677
:1029500001F03CFFEAE7052D11D100262046611C5D
:102960008CB27F490E542046611C8CB27C490F54B6
:10297000304601F02BFF384601F028FFD6E7062D40
:1029800014D100267448543887792046611C8CB2D3
:1029900073490E542046611C8CB271490F54304665
:1029A00001F014FF384601F011FFBFE7072D11D1E8
:1029B00000262046611C8CB269490E542046611CD9
:1029C0008CB267490F54304601F000FF384601F0E1
:1029D000FDFEABE7082D11D100262046611C8CB20C
:1029E0005F490E542046611C8CB25D490F5430463D
:1029F00001F0ECFE384601F0E9FE97E70F2D14D107
:102A0000002655485438877A2046611C8CB25449B8
:102A10000E542046611C8CB251490F54304601F0CF
:102A2000D5FE384601F0D2FE80E7102D14D10026E5
:102A300049485438C77A2046611C8CB248490E5424
:102A40002046611C8CB246490F54304601F0BEFE50
:102A5000384601F0BBFE69E7632D14D100263E48DD
:102A60005438877B2046611C8CB23D490E54204669
:102A7000611C8CB23A490F54304601F0A7FE38462B
:102A800001F0A4FE52E7642D1BD133485438408B2B
:102A9000061231485438877E2046611C8CB230497A
:102AA0000E542046611C8CB22D490F54304601F063
:102AB0008DFE384601F08AFE012127486C300180E6
:102AC00034E7652D18D124485438008C061222486A
:102AD0005438008CC7B22046611C8CB220490E5479
:102AE0002046611C8CB21E490F54304601F06EFE28
:102AF000384601F06BFE19E7662D18D11648543898
:102B0000408E061214485438408EC7B22046611CCD
:102B10008CB213490E542046611C8CB210490F54DC
:102B2000304601F053FE384601F050FEFEE6672DB8
:102B300026D109485438808A061207485438077D40
:102B40002046611C8CB206490E542046611C8CB292
:102B500003490DE0ECFDFF1F68FDFF1F5BFCFF1F3D
:102B60001EFEFF1F15FCFF1F69FCFF1F68FCFF1FF7
:102B70000F54304601F02AFE384601F027FED5E614
:102B8000682D13D10026FE48077F2046611C8CB2B9
:102B9000FC490E542046611C8CB2FA490F54304651
:102BA00001F014FE384601F011FEBFE6692D16D182
:102BB000F348C08B0004060EF148877F2046611C55
:102BC0008CB2F0490E542046611C8CB2ED490F5472
:102BD000304601F0FBFD384601F0F8FDA6E6652D14
:102BE00016D1E748008C0612E548008CC7B2204693
:102BF000611C8CB2E3490E542046611C8CB2E14941
:102C00000F54304601F0E2FD384601F0DFFD8DE65D
:102C10006A2D16D1DA48C08D0612D948C08DC7B2C8
:102C20002046611C8CB2D7490E542046611C8CB2E0
:102C3000D4490F54304601F0C9FD384601F0C6FDB5
:102C400074E66B2D1DD1CE48408FFF30F530CC4956
:102C5000898F401A81B20091009806120098C7B27D
:102C60002146601C84B2C74846542046611C8CB281
:102C7000C4490F54304601F0A9FD384601F0A6FDC5
:102C800054E66D2D1ED1BE48C08AFF30F530BC49D8
:102C90008031C98F401A81B20091009806120098C5
:102CA000C7B22146601C84B2B64846542146601C17
:102CB00084B2B4484754304601F088FD384601F0EC
:102CC00085FD33E66E2D1DD1AD48008AFF30F5300D
:102CD000AB49498A401A81B20091009806120098C7
:102CE000C7B22146601C84B2A64846542146601CE7
:102CF00084B2A4484754304601F068FD384601F0DC
:102D000065FD13E66C2D1DD19D48C08EFF30F5305A
:102D10009B49098F401A81B20091009806120098D1
:102D2000C7B22046611C8CB296490E542046611CE5
:102D30008CB294490F54304601F048FD384601F0FA
:102D400045FDF3E56F2D1DD18D48008EFF30F53028
:102D50008B49898E401A81B2009100980612009822
:102D6000C7B22146601C84B2864846542146601C86
:102D700084B284484754304601F028FD384601F0BB
:102D800025FDD3E5702D19D17D488030406C060EAD
:102D90007B488030406C0002070E2046611C8CB2DC
:102DA00078490E542046611C8CB276490F54304647
:102DB00001F00CFD384601F009FDB7E5712D19D180
:102DC0006F488030406C0004060E6D488030406CC7
:102DD000C7B22046611C8CB26A490E542046611C61
:102DE0008CB268490F54304601F0F0FC384601F0CF
:102DF000EDFC9BE5722D1FD16148C0304088FF304B
:102E0000F5305F49C0310989401A81B200910098BC
:102E100006120098C7B22046611C8CB259490E5464
:102E20002046611C8CB257490F54304601F0CEFC4D
:102E3000384601F0CBFC79E5732D17D15048C030EE
:102E4000408906124E48C030877A2046611C8CB2F9
:102E50004C490E542046611C8CB24A490F543046EE
:102E600001F0B4FC384601F0B1FC5FE5782D18D1D3
:102E700043484030408D061241484030408DC7B233
:102E80002046611C8CB23F490E542046611C8CB216
:102E90003C490F54304601F099FC384601F096FC4D
:102EA00044E5792D3EDB8C2D3CDC2846793880B218
:102EB00003900398C20F111849104A00811ACAB230
:102EC00002920398C20F1118C9050A0E01920298C6
:102ED00000280BD10198410029488030405A061241
:102EE0000198410026488030475C0AE00198410083
:102EF00023486C30405A06120198410020486C303B
:102F0000475C2046611C8CB21E490E542046611C51
:102F10008CB21C490F54304601F058FC384601F081
:102F200055FCFEE38D2D17D11548C030808906125F
:102F30001348C030077B2046611C8CB211490E54E7
:102F40002046611C8CB20F490F54304601F03EFC04
:102F5000384601F03BFCE4E38E2D1CD10848C0301C
:102F6000C08906120648C030877B2046611C8CB29F
:102F700004490E542046611C8CB202490F5403E0F0
:102F800014FDFF1F1EFEFF1F304601F01FFC3846D8
:102F900001F01CFCC5E38F2D15D1FC48008A0612F8
:102FA000FA48077C2046611C8CB2F9490E54204631
:102FB000611C8CB2F6490F54304601F007FC3846CC
:102FC00001F004FCADE3902D15D1F048408A0612C3
:102FD000EE48877C2046611C8CB2ED490E54204699
:102FE000611C8CB2EA490F54304601F0EFFB3846C1
:102FF00001F0ECFB95E3912D16D1E448808A06128E
:10300000E248077D2046611C8CB2E1490E542046FF
:10301000611C8CB2DE490F54304601F0D7FB3846B4
:1030200001F0D4FB7DE397E3922D16D1D748C08AF7
:103030000004060ED548877D2046611C8CB2D44919
:103040000E542046611C8CB2D1490F54304601F019
:10305000BDFB384601F0BAFB63E39F2D18D1CB4886
:10306000C038808C0612C948C038808CC7B2204650
:10307000611C8CB2C6490E542046611C8CB2C449F6
:103080000F54304601F0A2FB384601F09FFB48E3A5
:10309000A12D18D1BD48C038C08C0612BB48C0381D
:1030A000C08CC7B22046611C8CB2B9490E54204670
:1030B000611C8CB2B6490F54304601F087FB38468C
:1030C00001F084FB2DE3A02D1AD1B048C038408D0B
:1030D0000612AE48C038408DC7B22046611C8CB283
:1030E000AB490E542046611C8CB2A9490F5430469E
:1030F00000E01AE301F06AFB384601F067FB10E3D9
:10310000A22D17D1A148C038808D06129F4896384D
:1031100087782046611C8CB29D490E542046611C64
:103120008CB29B490F54304601F050FB384601F0F9
:103130004DFBF6E2A32D17D19448C038008D06123E
:1031400092489A3887782046611C8CB290490E5478
:103150002046611C8CB28E490F54304601F036FB7C
:10316000384601F033FBDCE2A42D18D18748403803
:10317000C08F061285484038C08FC7B22046611CF8
:103180008CB283490E542046611C8CB280490F5486
:10319000304601F01BFB384601F018FBC1E2A52DBB
:1031A00017D17A48C038408A06127848C038877CE0
:1031B0002046611C8CB276490E542046611C8CB2AC
:1031C00073490F54304601F001FB384601F0FEFA16
:1031D000A7E2A62D18D16D48C038808E06126B4824
:1031E000C038808EC7B22046611C8CB268490E542C
:1031F0002046611C8CB266490F54304601F0E6FA55
:10320000384601F0E3FA8CE2A72D18D15F48C038A8
:10321000808F06125D48C038808FC7B22046611C7F
:103220008CB25B490E542046611C8CB258490F5435
:10323000304601F0CBFA384601F0C8FA71E2A82D09
:1032400015D15248008906125048077A2046611C61
:103250008CB24F490E542046611C8CB24C490F541D
:10326000304601F0B3FA384601F0B0FA59E2AB2D1E
:1032700017D14648A038807F06124448A038877F7F
:103280002046611C8CB242490E542046611C8CB20F
:103290003F490F54304601F099FA384601F096FA4A
:1032A0003FE2AC2D3EDBBF2D3CDC2846AC3880B283
:1032B00003900398C20F111849104A00811ACAB22C
:1032C00002920398C20F1118C9050A0E01920298C2
:1032D00000280BD1019841002C488038405A061232
:1032E0000198410029488038475C0AE00198410074
:1032F00026486C38405A06120198410023486C3821
:10330000475C2046611C8CB221490E542046611C4A
:103310008CB21F490F54304601F058FA384601F07C
:1033200055FAFEE1CB2D18D118488038008D0612D1
:1033300016488038008DC7B22046611C8CB21449F3
:103340000E542046611C8CB211490F54304601F0D6
:103350003DFA384601F03AFAE3E1CC2D1AD10B4898
:1033600000880612094807782046611C8CB208497B
:103370000E542046611C8CB205490F54304601F0B2
:1033800025FA384601F022FACBE10000D4FDFF1FF8
:103390001EFEFF1FFF202E3085423FDBFF20413005
:1033A00085423BDC2846FF382E3880B203900398D4
:1033B000C10F091849104900411ACAB20292039874
:1033C000C10F0918C9050A0E01920298002809D1F7
:1033D00001984100F748405A061201984100F5480B
:1033E000475C0AE001984100F2481438405A06123E
:1033F00001984100EF481438475C2046611C8CB2AC
:10340000ED490E542046611C8CB2EB490F543046F6
:1034100001F0DCF9384601F0D9F982E119204001C8
:10342000854215D1E54800880612E4480778204611
:10343000611C8CB2E0490E542046611C8CB2DE49FE
:103440000F54304601F0C2F9384601F0BFF968E187
:10345000DB48854215D1D94840880612D74887787D
:103460002046611C8CB2D4490E542046611C8CB29B
:10347000D1490F54304601F0A9F9384601F0A6F9B8
:103480004FE1CF48401C854215D1CC4880880612B8
:10349000CA4807792046611C8CB2C7490E542046A1
:1034A000611C8CB2C4490F54304601F08FF9384684
:1034B00001F08CF935E1C248801C854215D1BF4826
:1034C000C0880612BD4887792046611C8CB2BA4973
:1034D0000E542046611C8CB2B7490F54304601F09F
:1034E00075F9384601F072F91BE1C9208000854268
:1034F00015D1B24800890612B048077A2046611CEF
:103500008CB2AD490E542046611C8CB2AA490F54AE
:10351000304601F05BF9384601F058F901E1A8485E
:10352000001D854215D1A54840890612A348877A17
:103530002046611C8CB2A0490E542046611C8CB2FE
:103540009D490F54304601F041F9384601F03EF9EB
:10355000E7E09B48401D854215D1984880890612B6
:103560009648077B2046611C8CB293490E54204636
:10357000611C8CB290490F54304601F027F938464F
:1035800001F024F9CDE08E48801D854215D18B488D
:10359000C08906128948877B2046611C8CB2864907
:1035A0000E542046611C8CB283490F54304601F002
:1035B0000DF9384601F00AF9B3E06520C0008542F4
:1035C00015D17E48008A06127C48077C2046611C83
:1035D0008CB279490E542046611C8CB276490F5446
:1035E000304601F0F3F8384601F0F0F899E07448FD
:1035F0000830854215D17148408A06126F48877C91
:103600002046611C8CB26C490E542046611C8CB261
:1036100069490F54304601F0D9F8384601F0D6F820
:103620007FE067480930854211D100262046611CA1
:103630008CB261490E542046611C8CB25E490F5415
:10364000304601F0C3F8384601F0C0F869E05C4844
:103650000A30854211D100262046611C8CB25649A1
:103660000E542046611C8CB253490F54304601F071
:10367000ADF8384601F0AAF853E0CB20800085422F
:1036800011D100262046611C8CB24B490E542046B5
:10369000611C8CB248490F54304601F097F8384607
:1036A00001F094F83DE046480C30854211D10026E7
:1036B0002046611C8CB240490E542046611C8CB2DD
:1036C0003D490F54304601F081F8384601F07EF84C
:1036D00027E03B480D30854211D100262046611C71
:1036E0008CB235490E542046611C8CB232490F54BD
:1036F000304601F06BF8384601F068F811E000261A
:1037000001272046611C8CB22B490E542046611CB7
:103710008CB229490F54304601F058F8384601F070
:1037200055F80498401CC1B2049105990498884248
:1037300001DAFFF7E0F823480678234807782046A7
:10374000611C8CB21C490E542046611C8CB21A4973
:103750000F54E0B2FEF703FE00E000BF07B0F0BD7B
:1037600070B505461948007819490978884201D092
:10377000002070BD17480078FF280CD0154800784D
:103780000C49AA398979884205D012480078002866
:1037900001D00020EDE70F48407803281CD00D48E9
:1037A0004078062818D00B484078102814D0002004
:1037B000DFE70000BEFDFF1F1EFEFF1F18FFFF1FFB
:1037C0002103000069FCFF1F68FCFF1F5DFCFF1F59
:1037D00015FCFF1FECFDFF1FFA480078801EC1B2E8
:1037E000F94801F003F80446F6480078801EF649CF
:1037F000085C0102F3480078401EF34A105C081888
:10380000A04201D10120B4E70020B2E770B5044620
:103810000D462A462146ED480068FDF73AF870BD8E
:103820007FB50546B62D76D014DCA42D74D008DC07
:10383000802D78D0902D71D0A12D70D0A32D6FD177
:103840008FE1B02D6DD0B12D17D0B32D6AD0B52D2D
:10385000F5D1CFE0BE2D78D008DCB72D76D0B92DCC
:1038600075D0BA2D74D0BD2DE9D14CE1BF2D70D0EB
:10387000E02D17D0E12DE2D13BE0D5A1D84802F0F0
:1038800039FB0320FDF7A6FFD54802F041FC86B2C4
:103890003246D349CD480068FCF7FBFF0320FDF713
:1038A00099FF7FE20121CF480180C038008ECD49C9
:1038B000C039C98ECB4BC03B3A229A5EC94E022317
:1038C000F35E009301920291039030464038436CBE
:1038D0008038C28AC4A1C24802F00CFBC04802F082
:1038E00017FC86B23246BE49B8480068FCF7D1FFE3
:1038F00058E2BC48C038028AC6A1B94802F0FAFAB8
:10390000B74802F005FC86B23246B549AF480068B8
:10391000FCF7BFFF46E29BE01CE004E042E031E23E
:103920003FE22BE052E0AF48C038028EBDA1AC4868
:1039300002F0E0FAAA4802F0EBFB86B23246A84950
:10394000A2480068FCF7A5FF2CE2F4E08FE09DE0C0
:10395000AFE0C9E0A348C038C38E3A22825EB4A16A
:103960009F4802F0C7FA9E4802F0D2FB86B2324668
:103970009B4996480068FCF78CFF13E201219948A7
:103980000180C038C28AAEA1954802F0B3FA9448CB
:1039900002F0BEFB86B2324691498C480068FCF7C3
:1039A00078FFFFE18F480223C35E4038A7A1426C35
:1039B0008B4802F09FFA8A4802F0AAFB86B2324690
:1039C000874982480068FCF764FFEBE101218548E4
:1039D0000180C038428BA1A1814802F08BFA804857
:1039E00002F096FB86B232467D4978480068FCF7C3
:1039F00050FFD7E17B488038428D9BA1784802F088
:103A000079FA774802F084FB86B231467448FFF7B2
:103A1000FDFE002416E0610072484038435A610000
:103A20001438425A94A16E4802F064FA6C4802F0CD
:103A30006FFB86B232466A4964480068FCF729FF8A
:103A4000601CC4B267488038408DA042E3DCA9E125
:103A50008FA1634802F04EFA614802F059FB86B22A
:103A600032465F4959480068FCF713FF9AE18FA17D
:103A70005B4802F03FFA5A4802F04AFB86B23246EF
:103A8000574952480068FCF704FF8BE15548C0389D
:103A90001E22825E8CA1524802F02CFA504802F09D
:103AA00037FB86B232464E4948480068FCF7F1FEC3
:103AB00078E14C48C038008D4A49C039898D009161
:103AC00001904848C038C38C428D82A1444802F01E
:103AD00011FA434802F01CFB86B2324640493B488B
:103AE0000068FCF7D6FE5DE184A13D4802F002FAD1
:103AF0003B4802F00DFB86B2324639493348006834
:103B0000FCF7C7FE4EE184A1354802F0F3F93448D2
:103B100002F0FEFA86B2324631492C480068FCF7C2
:103B2000B8FE3048C038007F002803D101202D495D
:103B3000C039087736E180A1294802F0DBF928482E
:103B400002F0E6FA86B231462548FFF75FFE2548C7
:103B5000C038007F002803D101202249C0390877EE
:103B600020E12048A038827F7BA11D4802F0C2F9E5
:103B70001B4802F0CDFA86B2324619491348006854
:103B8000FCF787FE002416E0610016486C38435AA3
:103B900061001438425A74A1114802F0ABF9104880
:103BA00002F0B6FA86B232460D4908480068FCF7C2
:103BB00070FE601CC4B20B48A038807FA042E3DCDA
:103BC000F0E0000015FCFF1FECFDFF1F38FCFF1F9D
:103BD0000D0A526573657420446F6E650000000025
:103BE0002CFFFF1FD4FDFF1F2343253035752050C8
:103BF0002530377520545025303464205448253002
:103C00003464204825303475204151253034750AFC
:103C10000D00000023504D323520253034750A0D3B
:103C2000000000004151253034750A0D00000000ED
:103C30005448253034642048253034750A0D00007E
:103C40002343253035750A0D000000005025303320
:103C500064205450253034640A0D00000D0A41449C
:103C600020253037752023000D0A436F32506F69CD
:103C70006E743A25750000000D0A43616C506F693F
:103C80006E7420414425752050504D25750000006C
:103C90000D0A434F322063616C6962726174696F0F
:103CA0006E20726573657420436D64000D0A526561
:103CB00063656976652073746F70206465746563ED
:103CC0007420436D640000000D0A525444203D25C9
:103CD000640000000D0A5430203D2025642C41442E
:103CE00030203D2025752C5432203D2025642C2089
:103CF000414432203D202575000000000D0A436C30
:103D0000656172205254442043616C69627261742F
:103D1000696F6E20436D64000D0A54656D706572A5
:103D2000617475726520436F6D70656E736174693F
:103D30006F6E204F6E0000000D0A54656D70657245
:103D4000617475726520436F6D70656E736174691F
:103D50006F6E204F666600000D0A48554D506F6922
:103D60006E743A25750000000D0A48554D506F6974
:103D70006E74204D6574657225752053656E736F82
:103D8000722575001AA11F4802F0B4F81D4802F010
:103D9000BFF986B232461B491B480068FCF779FD23
:103DA00000E000BF00BF7FBD10B51848807800025A
:103DB0001649C978401884B21548007801280FD1F7
:103DC0002046FFF7CDFC00280ED0FEF7C7FA00F022
:103DD000F7FC2046FEF7D3FA2046FEF70FFD03E07E
:103DE0000A498878FFF71CFDFEF7B2FA10BD000003
:103DF0000D0A436C6561722048756D207461626CB8
:103E0000650000002CFFFF1F38FCFF1FECFDFF1FAB
:103E100014FCFF1F10B501220021B948006800F012
:103E200080FD01221146B648006800F07AFD10BD01
:103E300070B50446002501221146B148006800F023
:103E400059FD01220021AE48006800F06AFD002102
:103E5000AB48006800F093FD00262FE001221146D8
:103E6000A748006800F05DFD0120A649088004E035
:103E7000A4480088401EA3490880A2480088002862
:103E8000F6DC00219E48006800F01CFD6900084334
:103E9000C5B2012211469A48006800F02BFD0120AE
:103EA0009849088004E097480088401E954908809A
:103EB000944800880028F6DC701CC6B2082ECDDBC2
:103EC000012C06D1002211468D48006800F06FFDDC
:103ED00005E0012200218A48006800F068FD012207
:103EE00011468748006800F01CFD012211468448F5
:103EF000006800F0FFFC284670BD70B50446082637
:103F000000BF80202040002806D0012200217C48EC
:103F1000006800F04CFD05E000221146784800687A
:103F200000F045FD01207749088004E075480088CD
:103F3000401E74490880734800880028F6DC01227E
:103F400011466F48006800F032FD6006040E012043
:103F50006C49088004E06B480088401E694908806D
:103F6000684800880028F6DC0022012164480068C7
:103F700000F01DFD01206349088004E061480088CD
:103F8000401E604908805F4800880028F6DC701EEB
:103F9000C0B20600B5D1012200215948006800F0E6
:103FA00006FD00215648006800F0E9FC0122114698
:103FB0005348006800F0FBFC01205249088004E0EF
:103FC00050480088401E4F4908804E48008800280D
:103FD000F6DC00214A48006800F074FCC5B20022FB
:103FE00001214748006800F0E2FC284670BD10B58A
:103FF0000446012200214248006800F0D8FC01205C
:104000004049088004E03F480088401E3D49088040
:104010003C4800880028F6DC012211463848006838
:1040200000F0C5FC01203749088004E035480088CD
:10403000401E34490880334800880028F6DC0022FE
:1040400011462F48006800F0B2FC01202D4908807D
:1040500004E02C480088401E2A490880294800882E
:104060000028F6DC002201212548006800F09FFCB2
:1040700001202449088004E022480088401E21498C
:104080000880204800880028F6DC2046FFF735FF2E
:10409000002010BD10B504462046FFF7A8FF002001
:1040A00010BD10B5002211461548006800F07FFCD5
:1040B00001201449088004E012480088401E11497C
:1040C0000880104800880028F6DC012211460C48C0
:1040D000006800F06CFC01200A49088004E00948EF
:1040E0000088401E07490880064800880028F6DC42
:1040F000012200210248006800F059FC10BD0000B8
:1041000048FCFF1F64FCFF1F70B504460E4680206C
:10411000FFF76DFFE720FFF7F0FE8120FFF7BAFF02
:104120000020FFF785FE0546012E04D10120A040A6
:104130002843C5B204E00120A040294681430D4632
:104140008020FFF754FFE620FFF7D7FE2846FFF751
:10415000D4FEFFF7A6FF012070BD10B58020FFF749
:1041600046FFFE20FFF7C9FEFFF79BFF012010BDB1
:1041700010B504468020FFF73AFF002C03D1F3204E
:10418000FFF7BBFE02E0F520FFF7B7FEFFF789FF60
:10419000012010BD70B506460D4600248120FFF7B2
:1041A00026FF0120FFF744FE044624020120FFF70A
:1041B0003FFE04430020FFF73BFEFFF772FF2C8019
:1041C000012070BDF8B506460F46154678483840C0
:1041D0000446002E10D177484443E117090C091911
:1041E0000C147548201A00B22880A85F0A2101F03B
:1041F000FCFF00B2288009E070484443E117090C35
:1042000009190C1420463C3800B228800120F8BD62
:1042100070B588B000256A480078002806D00128CB
:104220003CD002281ED003286FD17FE00220FFF788
:104230009FFF002806D001206149087000206149D5
:1042400008700EE05F480078401C5E490870084620
:104250000078052805DB03205949087000205949DA
:104260000870A1E00020FFF783FF002806D003209C
:10427000534908700020534908700EE051480078F7
:10428000401C5049087008460078052805DB0120CD
:104290004B49087000204B49087085E006A90220B0
:1042A000FFF778FF002831D007AA6846018B02206B
:1042B000FFF788FF002821D06846808B84B24248EF
:1042C000837F0246203201463431204601F034F922
:1042D0003D492039C8860846C28E3CA101A801F09C
:1042E00009FE01A801F014FF86B2324601A939483F
:1042F0000068FCF74DFD0320FDF76CFA0220304901
:10430000087000202F4908700FE04CE02D4800781D
:10431000401C2C49087008460078052805DB03205E
:10432000274908700020274908703DE006A90020B1
:10433000FFF730FF002826D007AA6846018B00202F
:10434000FFF740FF002818D069461C254D5F1E4826
:1043500020384587408F82B21FA101A801F0CAFD15
:1043600001A801F0D5FE86B2324601A919480068BD
:10437000FCF70EFD0520FDF72DFA0020104908700E
:10438000104908700EE00F480078401C0D49087075
:1043900008460078052805DB01200949087000203F
:1043A0000849087000E000BF00BF08B070BD000001
:1043B000FCFF0000A44400004D120000E2040000D5
:1043C00066FCFF1F67FCFF1F34FDFF1F48483D25AB
:1043D000750A0D003CFCFF1F48543D25750A0D0071
:1043E00070B50546EE4C02206070E007C00F002853
:1043F00003D020461530206302E0204614302063AD
:104400001922E849206B01F0A5FE6563E648C06B00
:1044100001210843E449C863E4480460204670BDB4
:1044200002460120C003814204D8002902D0401A6C
:10443000904201D2892070470020FCE7FFB581B08F
:10444000054616461F462C466078022808D060783C
:10445000012805D06078002802D0082005B0F0BD02
:1044600039463046FFF7DCFF002801D08920F5E708
:1044700002202070042060700620A070A7600298BF
:10448000E06026610020606000BFE7E7FFB581B013
:1044900005460E461F462C466078022808D06078F4
:1044A000012805D06078002802D0082005B0F0BDB2
:1044B00039463046FFF7B4FF002801D08920F5E7E0
:1044C0000120207004206070A7600398E0602661DE
:1044D000012060600020E9E7F8B507460D46164662
:1044E0003C466078022807D06078012804D06078C4
:1044F000002801D00820F8BD31462846FFF790FF7C
:10450000002801D08920F6E7A805800D002803D1F6
:10451000B005800D002802D0FF200230EBE7032019
:10452000207004206070A6600020E06025610120FA
:10453000800260600920A0700020DCE7F1B58AB03D
:104540000A9C0020C0430990002008900690002596
:1045500004906078052807D06078042804D060783B
:10456000032801D00BB0F0BD9148007880210840AD
:10457000002800D1F6E76078042805D170208C4926
:1045800008700020E07031E0894800780290E178FE
:104590007022029810400143E170E07800280FD0AB
:1045A000002060702078012809D08248C06801216D
:1045B000890208437F49C86000BF00BF00BFD1E740
:1045C000A068002812D1022060702078012809D04C
:1045D0007848C0680121890208437649C86000BF55
:1045E00000BF00BF606BFCF7A4FDBBE7207801288B
:1045F0000AD0022802D0032809D102E00120049049
:1046000006E00120049003E00020049000E000BFD9
:1046100000BF0498002802D10120039001E000208F
:104620000390B1E06248007802907021029808403F
:10463000002800D096E76078042802D10520607039
:104640000DE061682069401820612078012802D0BF
:104650002078022803D16168E0684018E060207883
:10466000012804D0022810D003284CD107E020698B
:104670000078E1680870A068401EA06044E0012155
:104680008902A068401AA0603EE0207C8507AD0F3B
:104690000320401B401C0690A1680698814202D26C
:1046A000207A079001E00698079000260AE0E0686B
:1046B000805DA91909AA5054FF20A91908AA5054CD
:1046C000701CC6B207988642F1DB2069401B05903A
:1046D00005980768089909980840B843002804D04D
:1046E000E07804210843E0703CE7F943099848402A
:1046F000099007986060A1680798081AA0602C4983
:104700000998886000E000BF00BF0498401E80B296
:104710000490A068002801D103900490207801281B
:1047200032D0A0782249C871207C401B0871208AB1
:10473000401B0004000E48712069401B0002000E5F
:10474000887100BF01A8FBF7C5FE1B480078401C1C
:10475000C0B219490870012803D168460079174989
:10476000087000BF0122216B11430846804700BF3B
:1047700011480078401EC0B20F490870002802D1CD
:104780000E48FBF7AFFE00BF0498002800D049E7B1
:1047900003980028FBD100BFE4E601464878704743
:1047A00060FFFF1F1C72000000800440E0FCFF1F40
:1047B00000000240003000F01DFCFF1F1CFCFF1F2A
:1047C000FF2017490870174908707047154A12787A
:1047D00042401146144A525C114B1B785A40114B0F
:1047E0001A70124A525C0E4B1A707047F0B50246AE
:1047F0000B46FF24FF2500260AE03046771CFEB258
:10480000115C61400848405C684004460748455CCC
:1048100018465F1EFBB20028EFD120022843F0BDEE
:1048200068FCFF1F69FCFF1F347200003473000036
:10483000014684480160844A126803239B041A439A
:10484000814B1A601A46526903239B041A437E4B1C
:104850005A617E4A92687E4B1A40FF2301331A4305
:104860007A4B9A601A46D268794B1A40FF2301337B
:104870001A43764BDA60774A1061704730B50346C9
:10488000002902D001291AD10CE0734800680124E4
:10489000A404A04394040125AD042C4020436E4C95
:1048A00020600DE06C4800680124E404A043D404B7
:1048B0000125ED042C402043674C206000E000BF40
:1048C00000BF30BD0246002902D001290ED106E00A
:1048D0006148006901239B041840800C70475E48C2
:1048E00000690123DB041840C00CF7E700BF00BFDC
:1048F0000020F3E710B5002902D001290ED106E00F
:1049000093040124A4042340534CA36007E0D30480
:104910000124E4042340504CA36000E000BF00BF2A
:1049200010BD10B5002902D001290ED106E0930474
:104930000124A4042340484C636007E0D30401240D
:10494000E4042340444C636000E000BF00BF10BD9E
:1049500010B5002902D001290ED106E093040124EC
:10496000A40423403C4CE36007E0D3040124E404A6
:104970002340394CE36000E000BF00BF10BD0029B8
:1049800002D0012910D107E0334A526901239B0468
:104990009A43314B5A6108E02F4A52690123DB04E4
:1049A0009A432D4B5A6100E000BF00BF704730B5FD
:1049B0000346002902D0012926D112E026480068CA
:1049C0000124A404A04394040125AD042C402043F9
:1049D000214C2060204640692C4620431E4C6061DB
:1049E00013E01D4800680124E404A043D404012519
:1049F000ED042C402043184C2060204640692C4692
:104A00002043154C606100E000BF00BF30BDF8B529
:104A100007460D4614461E46012D06D0022D05D030
:104A2000032D04D0042D04D102E000BF00BF00BF5D
:104A300001E08120F8BD00BF002C01D03046A04726
:104A40000020F7E76CFCFF1F00F10F4040D004404E
:104A5000FFF9FFFEE0FCFF1F00F10FF8FFB581B08A
:104A600005461446FE2129400846FFF7C0FA0746CE
:104A7000002F0BD01122FAA1FE480068FCF788F93C
:104A80000A20FCF7A7FE002005B0F0BD0298FFF752
:104A900034FA0746002F0AD01022F7A1F548006823
:104AA000FCF776F90A20FCF795FE0020ECE70121DF
:104AB00029430846FFF7EEFA0746002F0AD00F22D7
:104AC000F2A1EC480068FCF763F90A20FCF782FECB
:104AD0000020D9E7002606E00120FFF7A9F92070A1
:104AE000641C701CC6B20498401EB042F4DC002066
:104AF000FFF79EF92070FFF7D4FA0120C4E7F8B55C
:104B000004460D4616461F46002000903B4632469E
:104B100029462046FFF7A2FF00900098F8BD10B587
:104B200086B0DE49887E16236A46AA21FFF7E7FF92
:104B3000044668460078010268464078081800B2CA
:104B4000D64908806846807801026846C07808180F
:104B500000B2D2494880684600790102684640792F
:104B6000081800B2CD4988806846807901026846FD
:104B7000C0790818C949C8806846007A01026846A9
:104B8000407A0818C54908816846807A010268465B
:104B9000C07A0818C14948816846007B010268460E
:104BA000407B081800B2BD4988816846807B0102BD
:104BB0006846C07B081800B2B849C8816846007CC6
:104BC00001026846407C081800B2B4490882684671
:104BD000807C01026846C07C081800B2AF49488258
:104BE0006846007D01026846407D081800B2AB4966
:104BF0008882204606B010BD38B5002400210091FF
:104C00000020A649C876EE208876887E01236A4671
:104C1000D021FFF774FF0019C4B2684600789F499D
:104C2000C875012008840320488401208884084630
:104C3000C07D552817D1C876887E01236A46D121C8
:104C4000FFF75DFF0019C4B2684600780007000F47
:104C50009249087668460078F021084000118F4993
:104C60004876FFF75CFF8D488D490860204638BDC7
:104C7000F0B589B007468A480068C07E552819D12A
:104C8000874800684089381A854909680989484376
:104C9000C513834A136814229A5E5119804A126818
:104CA0001223D35ED80201F0A0FA0646A8197C4967
:104CB0000968C8617A480068C0690830001104B208
:104CC000224678A101A801F015F901A801F020FA07
:104CD00080B2024601A9009066480068FCF758F8C7
:104CE0000220FCF777FD204609B0F0BD0123DB066A
:104CF0000340002B0AD0002205E040100123DB070F
:104D00001843531CDAB28A42F7DB02E003460B4138
:104D100018467047F1B58EB061480068C0697D21C2
:104D20004901471A3846784305135D4801680E204B
:104D3000085E45430B212846FFF7D8FF0546584833
:104D400001680220085E784306460B213046FFF7D3
:104D5000CDFF0646A8190D905149096800228A5EC8
:104D600092000D9951184E4A1268528C9140881C3D
:104D7000C117890F091889100C914948016804204E
:104D8000085E784305460D212846FFF7AFFF05462C
:104D9000434801680C20085E3946794309134843AB
:104DA000064610213046FFF7A1FF064638467843F5
:104DB00006460C213046FFF799FF06463848016841
:104DC0000C20085E464310213046FFF78FFF064651
:104DD000A919881CC117890F091889100D9130482D
:104DE0000068C0880122D2030D99891848430B90AE
:104DF0000F210B98FFF77AFF0B900C990E98401A31
:104E0000274909684A8C2949114148430A900121E0
:104E1000C9070A98884206D20A9948000B9901F0FE
:104E2000DAF9044604E00B990A9801F0D4F9440039
:104E300008212046FFF75AFF05466D431C4868438A
:104E400005141C486043064610213046FFF74EFF0C
:104E500018486043064610213046FFF747FF2BE015
:104E60000D0A207265616420616464722066616964
:104E70006C0000003CFCFF1F0D0A2072656164207D
:104E8000726567206661696C000000000D0A20727F
:104E9000657374617274206661696C0098FFFF1F0E
:104EA00070FCFF1F50543D25640A0D0050C30000E4
:104EB000DE0B000043E3FFFF0646A919A54A881848
:104EC000C117090F091809110C192246A2A102A83D
:104ED00001F010F802A801F01BF980B2024602A905
:104EE00001909F480068FBF753FF0220FCF772FC1B
:104EF00020460FB0F0BDFFB581B007461446FE2135
:104F000039400846FFF773F80646002E0BD01222F0
:104F100094A193480068FBF73BFF0A20FCF75AFC7A
:104F2000002005B0F0BD0298FEF7E7FF0646002E10
:104F30000AD00C2290A18A480068FBF729FF0A20BA
:104F4000FCF748FC0020ECE7002513E02078FEF792
:104F5000D4FF0646002E0AD012228BA1804800689A
:104F6000FBF716FF0A20FCF735FC0020D9E7641C8C
:104F7000681CC5B204988542E8DBFFF792F801206F
:104F8000CFE7F8B504460D4616461F4600200090B0
:104F90003B46324629462046FFF7ADFF0090009879
:104FA000F8BD7CB57D480068C07D552802D12E2013
:104FB0000090052579490968887E01236A46F42115
:104FC000FFF7DFFF06462846FCF704FC7349096833
:104FD000887E022301AAF621FFF791FD8019C6B24F
:104FE00068460079010268464079081884B2204674
:104FF0007CBDFEB500250027002668480068C07DFE
:1050000055284ED165480068808C012849D16348F5
:105010000068408C032844D100243AE05F480068CF
:10502000408C80013430C1B200915C490968887EAF
:1050300001236A46F421FFF7A4FF06465749096891
:105040004A8C03219140891C88B2FCF7C3FB534969
:105050000968887E032301AAF621FFF750FD801915
:10506000C6B26846007901046846407900020843E8
:1050700069468979084349490968498C0822511AC7
:10508000C84007460120454909680884ED19601C9D
:1050900084B2032CC2DB0321284601F09CF80546AC
:1050A00041E03E480068C07D55283CD13B4800683F
:1050B000808C002837D139480068408C800134301A
:1050C000C1B2009135490968887E01236A46F421FE
:1050D000FFF757FF0646314909684A8C0321914082
:1050E000891C88B2FCF776FB2C490968887E03236B
:1050F00001AAF621FFF703FD8019C6B268460079C0
:1051000001046846407900020843694689790843EA
:1051100022490968498C0822511AC84005460120D5
:105120001E49096808842846FEBD70B50024002584
:10513000FFF737FF0446FFF75CFF05462046FFF701
:1051400097FD174948802846FFF7E4FD1449403988
:10515000486470BDCF0E000050503D25750A0D000B
:105160003CFCFF1F0D0A207772697465206164643E
:1051700072206661696C00000D0A2077726974659F
:1051800020526567000000000D0A2077726974657F
:1051900020617272206572726F72000070FCFF1FD6
:1051A000D4FDFF1F10B50122052177480068FCF7E8
:1051B000CFF90122042174480068FCF7C9F90122E3
:1051C000032171480068FCF7C3F910BD70B50546AE
:1051D0000E462D072D0F002205216B480068FCF7B5
:1051E000B7F908241EE00022042167480068FCF794
:1051F000AFF928462041C007C00F002806D0012281
:10520000032161480068FCF7A3F905E000220321AF
:105210005D480068FCF79CF9012204215A480068A7
:10522000FCF796F92046611ECCB20028DBD1082499
:105230001EE00022042154480068FCF789F930463A
:105240002041C007C00F002806D0012203214E488C
:105250000068FCF77DF905E0002203214A48006858
:10526000FCF776F90122042147480068FCF770F941
:105270002046611ECCB20028DBD101220521424824
:105280000068FCF765F970BD70B504460026240778
:10529000240F80200443002205213B480068FCF7CE
:1052A00057F908251FE00022042137480068FCF761
:1052B0004FF9681E21460141C807C00F002806D0DB
:1052C0000122032130480068FCF742F905E0002282
:1052D00003212D480068FCF73BF9012204212A48EC
:1052E0000068FCF735F92846691ECDB20028DAD1EE
:1052F0000122032124480068FCF72AF903212248EF
:105300000068FCF7D1F8082513E0002204211E48AC
:105310000068FCF71DF9012204211B480068FCF716
:1053200017F9032119480068FFF7CCFA7100084308
:10533000C6B22846691ECDB20028E6D10122052159
:1053400011480068FCF704F9304670BD10B5FE2125
:105350000F20FFF73BFFED210F20FFF737FF10BDB8
:1053600010B5FF210F20FFF731FFFF210F20FFF7BE
:105370002DFF10BD10B565210020FFF727FFA021EC
:105380000120FFF723FF10BD44FCFF1F48FCFF1F57
:1053900010B55C480088002800D110BD5A4800882C
:1053A000FF21F531884235DB0020574908805748F6
:1053B0000078002821D10120544908705448007811
:1053C000002806D00020524908706521FFF7FEFE34
:1053D00006E001204E490870E5210020FFF7F6FEA7
:1053E000012200214B480068FBF706FF01204A49D3
:1053F00008700020494908800CE0002046490870E8
:10540000464908804149087001220021414800684E
:10541000FBF796FF41480088FF215F31884207DB98
:1054200000203D4908703D49088001203C49087032
:105430003B480078012862D13A480078401C39493D
:1054400008700122384939480068FBF7C4F837482A
:105450000068FBF7A7F800BF34480068FBF7EBF8DB
:105460000128F9D12A480078002820D030492F4857
:105470000068FBF7CDF82E48801E40882D4909684A
:1054800040182C49086027480078052837D10521A5
:105490002848006800F09FFE2549891E888000206A
:1054A000204908701E4908702249086027E02049F9
:1054B000891E1E480068FBF7ABF81D48801E008857
:1054C0001C49096840181B490860164800780528DF
:1054D00015D105211748006800F07DFE1449891E8A
:1054E000C88008468088C988401A0649C039488360
:1054F00000200C4908700A4908700E49086000BF76
:105500004BE70000D4FDFF1F74FCFF1F7AFCFF1F58
:105510007BFCFF1F44FCFF1F76FCFF1F78FCFF1F76
:105520007CFCFF1F7DFCFF1F0BFCFF1F0CFCFF1F03
:105530001AFFFF1F80FCFF1FF0B589B005460C461F
:1055400016461F4600200890022F08DA0B2255A1AC
:1055500057480068FBF71CFC28B209B0F0BD781E64
:105560004000205AA84210DA781E4000205A0390CA
:10557000B81E4000205A0490781E4000305A059012
:10558000B81E4000305A06902DE02088A84208DD61
:105590006088039020880490708805903088069079
:1055A00021E0002007900AE007984000205AA84216
:1055B00004DA0798401CC0B2079000E000E0F3E76F
:1055C00000BF07984000205A03900798401E4000F3
:1055D000205A049007984000305A05900798401EC2
:1055E0004000305A0690059906980191009031A12B
:1055F0003748039B049A00F07DFC354800F088FD95
:1056000080B202463249029029480068FBF7C0FB8D
:105610000398401B069A5043049AAA1A059B5A43C2
:1056200080180290049A0398811A029800F0DDFD18
:1056300000B208900898002801DA00200890089825
:105640008BE7F8B505460024002700262EB2214836
:105650000088301A04B2642C03DA6320C043844209
:1056600006DCA0101B49096840181A49086014E0BC
:105670001948C08D1749096848431649086008460B
:105680000068801908601448C08D411C11480068EA
:1056900000F0A1FD80B20F4908600E48008887B273
:1056A0003846F8BD706F696E74203C20320A0D00D8
:1056B0003CFCFF1F58313D25752058323D25752093
:1056C00059313D25752059323D25750A0D000000E0
:1056D000C0FFFF1F84FCFF1F14FDFF1FF0B587B044
:1056E00006460F4601200690FB484088B04201DB89
:1056F000012400E0022401257AE06800F749085AF5
:10570000B84273DB681E06214843F5494118601E04
:105710004000095A68460182681E06214843F04944
:1057200040186100415A6846418206206843EC49AE
:105730004118601E4000095A68468182062068436D
:10574000E74940186100415A04A8C1806000E24A5C
:10575000125A601E4000E04B185A111A6846028A1D
:10576000408A101A621E52009A5AB21A504301908F
:1057700000F03BFD01466846008A401A80B2039063
:105780006000D54A125A601E4000D34B185A111AB5
:105790006846828A04A8C088101A621E52009A5A6B
:1057A000B21A5043019000F020FD6946898A081A18
:1057B00082B202926800C94A125A681E4000C74B62
:1057C000185A111A681E40001A46105A3B1A029ABB
:1057D0000398801A43431846019300F006FD0146E2
:1057E0000398401A80B2069004E0FFE7681C85B277
:1057F000052D82DB00BF069807B0F0BDF0B58DB077
:105800007F20C0050990B7480078002825D1B64808
:105810000078401CB4490870B4480088B44909882D
:10582000401A08280ADBB2480088B0490988401AA3
:10583000082803DBAC480078962805DD0120A9493B
:1058400008700020A8490870A9480088A749088066
:10585000A7480088A749088021E3A74800780028C6
:105860007DD0A6480088002879DDA548C08E642830
:10587000FADD14219D48008800F0B7FC089001F083
:105880002FFA09909F49099801F0F4FB9E49069070
:1058900001F048FC0790099901F036F9089001F0F1
:1058A000E3F980B20C900C9800F0CDFF0022974BEA
:1058B0000591049000F07AFD0791069000F038FD04
:1058C0000B90934A1188934A1088FFF707FF0690C0
:1058D00001F00EFA07900B9901F0CCFB8E4908906D
:1058E00001F012F90B900C9800F0ADFF0022874BED
:1058F0000591049000F05AFD0791069000F018FD04
:105900000A90834A5188834A5088FFF7E7FE069041
:1059100001F0EEF907900A9901F0ACFB7E4908907E
:1059200001F0F2F80A900B9801F0C4F87B4A7C4B26
:105930000391029000F08AFF079106900A9801F007
:10594000B9F805910490079B069A01F01BFB4AD217
:105950007448008801F0CCF907900C9800E042E010
:1059600001F0C6F900900B9901F084FB65490190A4
:1059700001F03AFB01460290634801F0C5F804903B
:105980000C9801F0B5F900900A9901F073FB5D499C
:10599000019001F029FB014602905B4801F0B4F848
:1059A0000390049901F0CAFB5F49059001F062FB86
:1059B0000690079901F018FB089001F055F985B29F
:1059C0005A480088411B5A480078401F814203DB37
:1059D00056480088A84206DA54480088434908809F
:1059E0000020464908804348008841490988884288
:1059F00003DD3F4800883F4908803B480078401C51
:105A0000394908700846007814280DDB01203A490E
:105A10000870002034490870464800883C490880D6
:105A20003748C08E3B490880314800884249088089
:105A3000084600882C4909784900404A50522A48B3
:105A40000078132807D13B480088314948802C480A
:105A5000C08E304948803A480088401C3849088048
:105A6000084600884B21C90088420FDD3548007880
:105A700001280BD1002033490870314908801D48A6
:105A800000881A49088030481A4908802C48008844
:105A900096280CDD19480088002808D1284908807C
:105AA0001448008811490880274812490880124884
:105AB000007800287ED0204800880C490988884258
:105AC00078DD1E480088194908801C48008815495F
:105AD000088000274EE00000567400005C7400004F
:105AE000387400009CFCFF1FADFCFF1F90FCFF1FE3
:105AF0009EFCFF1F8EFCFF1FACFCFF1F96FCFF1FD0
:105B000014FDFF1F000020410000484200003E40FD
:105B1000A4FCFF1FA8FCFF1F0000C8428FC2F5288D
:105B20005C8FEA3FA2FCFF1F0000A041A0FCFF1F0A
:105B3000347400008CFCFF1F92FCFF1FF2FFFF1F5C
:105B400094FCFF1F98FCFF1FFF0300007800DB4957
:105B5000085ADB490988884205DD7800D749085A88
:105B6000D749088004E07800D449085AD54908800C
:105B7000781CC7B2142FE9DBD2480088D2490988C3
:105B8000884203DCD0480088CE490880CF4800888E
:105B9000CD490988401A84B2C9480088C949098892
:105BA000401A86B2CA488078A04247DAC9480088BD
:105BB000032800E0D0E041D0C5488078B04203DA45
:105BC0000320C4490880D2E0C1484078B04218DAC6
:105BD000C0480088022814D0BE48008803280CD191
:105BE000BB484078401FA04203DA0220B949088030
:105BF000BDE00320B7490880B9E00220B54908801C
:105C0000B5E0B3480078B042DDDAB2480088012838
:105C1000D9D0B048008801280CDDAD480078401F7D
:105C2000A04203DD0120AB490880A0E00220A94981
:105C300008809CE00120A749088098E0A4484078AB
:105C4000A04249DAA2488078A04245DDA1480088F8
:105C5000022841D09F480088022835DA9C484078C5
:105C6000B04214DA9B48008803280CD19848407849
:105C7000401FA04203DD02209649088077E0032000
:105C80009449088073E00220924908806FE09048B0
:105C90000078B0426BDA8F480088012867D08D48C1
:105CA000008801280CDD8A480078401FA04203DAF2
:105CB0000120884908805AE002208649088056E081
:105CC00001208449088052E08248008802284EDD85
:105CD0000220804908804AE07D480078A0422CDA02
:105CE0007B484078A04228DD7A480088012824D0EB
:105CF00078480088012818DA75480078B04236DA0A
:105D00007448008801280CDD71480078401FA042CB
:105D100003DA01206F49088029E002206D490880DC
:105D200025E001206B49088021E06A4800880128AD
:105D30001DDD01206749088019E065480078401F93
:105D4000A04205DC614800885F49098888420EDA74
:105D50000020604908800AE05F480078002806D0EB
:105D600000205C49088059480088574908805948F4
:105D70000088032803DA00205849087002E0012057
:105D800056490870514800884F490988884278DD93
:105D90004E4800884C490988401A84B24D48008812
:105DA00000280AD14A4A117864226243104600F062
:105DB0001CFA64304A4908804DE0464800880128B2
:105DC0000FD1434A5278424B1B78D11A404A12787D
:105DD000A01A00F00AFAC8214843C8304049088098
:105DE00039E03C480088022818D139488078A04220
:105DF00031DA3748807819282DDD354A9278344BCE
:105E00005B78D11A324A5278A01A00F0EEF9C82114
